:020000040800F2
:1000000038070020350200083D0200083F020008C2
:1000100041020008430200084502000800000000F9
:10002000000000000000000000000000470200087F
:1000300049020008000000004B0200082D240008BF
:100040004F0200084F0200084F0200084F0200084C
:100050004F0200084F0200084F0200084F0200083C
:100060004F0200084F0200084F0200084F0200082C
:100070004F0200084F0200084F0200084F0200081C
:100080004F0200084F0200084F0200084F0200080C
:100090004F0200084F0200084F0200084F020008FC
:1000A0004F0200084F0200084F0200084F020008EC
:1000B0004F0200084F0200084F0200084F020008DC
:1000C0004F0200084F0200084F0200084F020008CC
:1000D0004F0200084F0200084F0200084F020008BC
:1000E0004F0200084F0200084F02000800F002F81B
:1000F00000F090F80AA090E8000C82448344AAF132
:100100000107DA4501D100F085F8AFF2090EBAE82F
:100110000F0013F0010F18BFFB1A43F0010318473B
:100120005C4C00007C4C0000103A24BF78C878C1B9
:10013000FAD8520724BF30C830C144BF04680C60ED
:10014000704700000023002400250026103A28BF35
:1001500078C1FBD8520728BF30C148BF0B60704739
:100160006E2900F05181702900F09382662904F015
:100170004185652904F03E85672904F03B856129A6
:1001800004F03A8503681B0A28BF41F08001692901
:1001900000F0FE80642900F0FB80752900F0F880F3
:1001A0006F2900F02182782900F05F82E92900F0B0
:1001B000BB81E42900F0B881F52900F0B581EF2971
:1001C00000F01E82F82900F05E820368DB0928BF78
:1001D00041F08001632900F05F87732900F0648794
:1001E000E32900F06F87F32900F07487002070473F
:1001F0001FB500F0C5FF04000020002104F0A0F9A5
:10020000401C60600020002104F084F9E0601FBD04
:1002100010B510BD00F086FF1146FFF7E9FF03F0AF
:10022000E5FB01F063F803B4FFF7F2FF03BC01F054
:10023000ABF800000948804709480047FEE7FEE7A1
:10024000FEE7FEE7FEE7FEE7FEE7FEE7FEE7FEE786
:1002500004480549054A064B70470000612500081F
:10026000ED00000838010020380700203803002086
:10027000380300200FB41CB5084B06AA7B4469461E
:100280000090059800F0D9F804460020694600F077
:10029000E7F820461CBC5DF814FB0000E1010000FB
:1002A0001CB50C46064B7B4469460090204600F086
:1002B000C4F804460020694600F0D2F820461CBD70
:1002C000B701000070477047704770B504468569F4
:1002D0000068C10601D5302600E02026C00707D0FF
:1002E00070BDD4E9012130469047206A401C20624D
:1002F0006D1EF6D570BD70B5044685690078C007DF
:1003000007D170BDD4E9012120209047206A401C0C
:1003100020626D1EF6D570BD09684A0501D540B250
:100320007047C905FCD500B2704709684A0501D578
:10033000C0B27047C905FCD580B2704770B50C4695
:100340000546012A05D02878800600D5EA690023F1
:1003500002E0012305E05B1C934202D2E05C00282E
:10036000F9D1A869E618C01AA861286A1844286259
:100370002846FFF7AAFF04E0D5E9012114F8010B94
:100380009047B442F8D32846FFF7B5FF70BD000090
:100390002DE9F0410646002410687529314616A55E
:1003A00010D0FFF7B9FF002802DA404213A507E09A
:1003B00031688A0701D512A502E0490704D511A5C5
:1003C000012401E0FFF7B1FF00210A2206F1240712
:1003D00009E0B0FBF2FCB0FBF2F302FB1C00303092
:1003E00078541846491C0028F3D123462A46304643
:1003F000BDE8F04100F061BA000000002D000000EF
:100400002B0000002000000011680268006A5305FC
:1004100001D508700AE0D30501D5088006E013066F
:1004200003D5C217C1E9000200E00860012070474F
:1004300001694A1C02610878704700B58FB0CDE9A8
:1004400001310021059105497944CDE90310114698
:10045000684600F029F90FB000BD0000E5FFFFFF7E
:100460000A6802F8010B0A60704700002DE9FF5F7F
:1004700015468A460446DFF8AC80F8440027D8E9E0
:1004800000103E46CDE9001010E03AF816106A461A
:1004900002A800F023FE411C07D02178890603D56D
:1004A000E269391891420DD80744761C20788006FD
:1004B00002D5E069B84205DDAE42E6DB3AF8160047
:1004C0000028E2D1A069C01BA0612046FFF7FDFE15
:1004D000D8E90010CDE90010002017E03AF8181014
:1004E0006A4602A800F0FAFDB0F1FF3F81460BD04A
:1004F00000250DF1080B05E0D4E901211BF80500EA
:1005000090476D1C4D45F7D308F10100B04280467D
:10051000E4DB206A384420622046FFF7ECFEBDE8A9
:10052000FF9F00007E4700002DE9F0418046D21D6C
:1005300022F007020025D2E90002F52915A614D001
:10054000011E72F1000106DA0023D0EB030063EB19
:10055000020211A608E0D8F800108B0701D50FA6FB
:1005600002E0490701D50EA601251146002408F135
:10057000240704E000F05CF930323A55641C50EA7C
:100580000102F7D12B46324621464046BDE8F041F4
:1005900000F093B9000000002D0000002B000000C7
:1005A0002000000030B4002100F1240408E002F033
:1005B0000705D208303542EA4372DB086554491C0E
:1005C00052EA0305F3D10468002310A2250708D5D9
:1005D00004F020040C4304D0C46901230CA2641E5F
:1005E000C46130BC00F069B910B5044621461068FA
:1005F000FFF79BFE02462046BDE810400023D1E7EE
:10060000D21D22F00701D1E90023CBE70000000052
:1006100030000000F0B40D460188090502D5214CD8
:100620007C4402E01F4C7C440E34002100F124067F
:1006300008E002F00F071209E75D42EA03721B09A6
:100640007754491C52EA0307F3D1027800231207BA
:1006500004D5702D06D009B1022311342246F0BC16
:1006600000F02BB901231034F8E770B504460D46AD
:1006700021461068FFF759FE024629462046BDE88C
:1006800070400023C6E7D21D22F00703D3E9002300
:10069000C0E70368126843F0200303600823C361C6
:1006A0000023B7E7E04500002DE9F05F89460446E6
:1006B0004FF0000ADFF874B1FB44C0F820A02046D8
:1006C000E1688847002874D0252806D0D4E90121A4
:1006D0009047206A401C2062F1E700265F462046D2
:1006E000E16888472028054607DB312D05D27819B7
:1006F00010F8200C08B10643F1E7B00701D526F049
:100700000406C4F81CA00027C4F818A02A2D09D09C
:10071000284603F0F7FE38B304EB8708303DC8F8ED
:10072000185019E059F8041B204604EB8702916128
:10073000E1688847012F054618D1E069002820DAD2
:1007400026F020061DE0D8F8180000EB800005EB2D
:1007500040003038C8F818002046E1688847054650
:1007600003F0D0FE0028EED1012F0AD02E2D08D1A3
:100770002046E16888477F1C0546022F46F0200688
:10078000C4DBA069002803DA404246F00106A061FC
:10079000F00701D026F010066C2D0BD0682D09D083
:1007A0004C2D39D06A2D35D0742D35D07A2D33D0DB
:1007B00016E038E0E1682F4620468847B8420546F3
:1007C00009D16C2F26D04FF48060E16806432046A3
:1007D0008847054604E06C2F1AD04FF4807006431A
:1007E0000DB3A5F14100192802D8203546F4006662
:1007F0004A462946204626604E46FFF7B1FC80B1A6
:1008000001280BD0F61D26F0070000F1080956E775
:100810004020E4E78020D8E70020D6E706F104096D
:100820004DE7284652E7206ABDE8F09F704500007A
:1008300030B5B0F10A0271F100034FEA900E4EEAB2
:10084000817EB0EB0E0061EB91014FEA101E4EEA83
:10085000017E10EB0E0041EB11114FEA102E4EEA13
:10086000016E10EB0E0041EB11214FEA104E4EEAE3
:10087000014E10EB0E0041EB1141401841F1000117
:100880004FEAD00040EA41704FEAD1014FEA8104BB
:1008900044EA907410EB800544EB01046D1944EBBD
:1008A0000404521BA3414FF0000348BF0A3200D595
:1008B00030BD401C41F1000130BD2DE9F0470D462F
:1008C00099469246044600F124080168880604D53A
:1008D000E06921F01001216000E00120A84201DD63
:1008E000471B00E00027A1697A1902EB0900081AEA
:1008F000A0612078C00602D42046FFF7E6FC00265F
:1009000008E0D4E901211AF806009047206A401C4B
:10091000761C20624E45F4DB2078C0060AD52046BE
:10092000FFF7D3FC06E0D4E9012130209047206A8C
:10093000401C2062381EA7F10107F4DC07E0D4E96F
:10094000012118F805009047206A401C2062281EEB
:10095000A5F10105F3DC2046FFF7CDFC2078000669
:1009600002D50220BDE8F0870120FBE72DE9FF4F0B
:100970000C461E464FF0FF378BB0D2E90001DDF880
:1009800060800A908A46C1F30A5505B93D460021A8
:1009900008464FF00000BAF1000F00F4400005DAFD
:1009A00000EB80004FF4400101EA50004FEA9059FB
:1009B000B9F1010F00DDB9460A9850EA4A000ED09D
:1009C00044F61050A5F2FF3545432F14B8F1000F3F
:1009D0001ED07542291E1EDDC9F100021CE0B8F1CF
:1009E000010F4FF0000001D0302103E0F24305E099
:1009F0002154401CB042FBDB304600220021215430
:100A00000B99C1F80880C1E900200FB0BDE8F08F54
:100A1000BD1B6D1CDEE74A4600DA694206A800F0FD
:100A2000F3FB06AB93E8070003AB83E807005046EF
:100A30000A9903F08BF98DE80700A0F500501F38E4
:100A400000900398002D0ADD42F21F014A46084437
:100A5000002303A90390684603F0F4FB09E0A0F526
:100A600000504A461F38002303A90390684603F04C
:100A7000FEFB8DE807000004000C03D04FF0FF30B0
:100A8000410800E01046B8F1000F03D000220092A8
:100A900015461EE0751E05D4FFF7CAFE30326255BA
:100AA0006D1EF9D5B3460122084302D000227F1CF7
:100AB00004E02078302801D100227F1E002A099707
:100AC00084D01DE0112D07DAFFF7B2FE30326255F7
:100AD0006D1C50EA0102F5D1084302D00098C8B15C
:100AE0000EE00021681E05E0235C625C6354225422
:100AF000401E491C8142F7DBAB46A81B401E0990F3
:100B0000002004F80B000B98099AC0F80880C0E98F
:100B1000002B7AE711264FF0000857E72DE9F04F38
:100B200088460446D21D22F0070191B0D1E90001A8
:100B3000CDE90A0103F0D2FC02460B98C00F01D0A8
:100B40002D2007E02068810701D52B2002E020211D
:100B500001EAC000032A099001D0072A05DB0346F9
:100B60004146204600F010FB0BE12078800601D5BD
:100B7000E06900E00620B8F1650F814606D0B8F1C3
:100B8000660F18D0B8F1670F70D131E00020B9F1CD
:100B9000110F009001DB112301E009F101030AAA02
:100BA00001A90CA8FFF7E2FEDDE90C70002609F1AF
:100BB0000105834647E001204B4600904FF0004777
:100BC0000AAA01A90CA8FFF7D1FEDDE90DB00C9926
:100BD0005D46002610B909F101000D18B9EB0500BA
:100BE00003D4C0F1FF3609F10105A5EB09002BE0A4
:100BF000B9F1010F01DA4FF001090020B9F1110F2D
:100C00000090484601DD112300E003460AAA01A92D
:100C10000CA8FFF7ABFEDDE90C704D4600268346BD
:100C2000207800070AD4AB4500DA5D4601A8012D03
:100C300004DD411911F8011C302907D04F4502DAB3
:100C400017F1040F04DA012082460FE06D1EEEE773
:100C5000002F02DCED1B3E4403E0781CA84200DDBF
:100C60007D1CB81B00F1010A4FF0004720780007F7
:100C700003D4AA4501DB4FF0FF3A0021B7F1004F42
:100C80000DF143088DF8431024D002202B23002FB0
:100C900001DA7F422D230A21021EA0F1010000DCAF
:100CA0005FB197FBF1FC97FBF1F201FB1C7C17464F
:100CB0000CF1300C08F801CDEEE7A8F1010003704B
:100CC0002188090501D5452100E06521A0F1010831
:100CD00000F8011C09980FA9A1EB0807FF1D00B13E
:100CE0000120411901EBEA70A1693844081A401E3D
:100CF000A0612078C00602D42046FFF7E6FA0998E2
:100D000028B1D4E901219047206A401C2062207854
:100D1000C00622D52046FFF7D8FA1EE0002E04DBDD
:100D2000B34502DD01A8805D00E03020D4E9012157
:100D30009047206A401C2062761CAAF101005FEAFD
:100D4000000A0AD100F01CFAC0680168405CD4E9CE
:100D500001219047206A401C2062281EA5F1010550
:100D6000DCDC07E0D4E9012118F8010B9047206A88
:100D7000401C2062381EA7F10107F3DC2046FFF774
:100D8000BAFA032011B041E62DE9F04F04460D46B2
:100D9000D21D22F0070089B0D0E9009748463946B5
:100DA00003F09CFB0246F80F01D02D2307E02068DA
:100DB000810701D52B2302E0202101EAC0038DF831
:100DC00020300BB1012000E00020032A824601D030
:100DD000072A04DB2946204600F0D6F93FE12078B7
:100DE000800601D40D2500E0E569C7F30A560D2DF4
:100DF00049DA00214FEA175B08464FF00000002F48
:100E000000F4400007DA00EB80004FF4400100EBF3
:100E1000D07001EA60008115012901DD4FF0FF313A
:100E200000224FEA850CBCF1180F06D31346ACF133
:100E300018004FF08052C24003E04FF4801323FAB1
:100E40000CF30CF10C0CBCF1200F04D3ACF1200C12
:100E500009FA0CF001E007FA0CF000294FF0004805
:100E600001DD18B90FE00ED140450CD319EB020992
:100E70005F4121B9404502D19F4329EA0209BBEBFA
:100E8000175F00D0761C2088000502D57B48784487
:100E900002E07A487844193808AA302302F80A3068
:100EA000037C0AF10101002E0AF1020A53546A463A
:100EB00002DC4FF0300101E04FF031014FF001084A
:100EC0008DF8001002D0A6F2FF3603E059EA470180
:100ED00000D06B4E002D02DC2178090704D54FF0BD
:100EE00002082E218DF80110C44600210BE0C7F343
:100EF00003433F01C35C491C6D1E02F808300529FD
:100F000008F1010801DA002DF1DC00210CE000EB12
:100F10001973491C1B786D1E082902F808304FEA26
:100F2000091908F1010801DA002DF0DC21688B06AF
:100F300002D516E0A8F10108E04505DD02EB080343
:100F400013F8013C302BF5D0B8F1000F09DD02EBAE
:100F5000080313F8013C2E2B03D1090701D4A8F193
:100F60000108002D05DD3E2102F808106D1E08F174
:100F70000108407C002E02F8080008F1010804DA9C
:100F80002D20764202F8080002E02B2002F808002B
:100F90000A214FF47A70864208F101080BDB96FBB8
:100FA000F0F3303302F8083096FBF0F308F1010853
:100FB00000FB136601E0642E0CDB642096FBF0F36B
:100FC000303302F8083096FBF0F308F1010800FB1B
:100FD000136601E00A2E06DB96FBF1F0303002F8D2
:100FE000080008F1010896FBF1F001FB10603030B9
:100FF00002F80800A16908F1010808EB050202EBFC
:101000000A00081AA0612078C00602D42046FFF723
:101010005CF9216A08AE01EB0A00206204E0D4E921
:10102000012116F8010B9047BAF1010AF7D2207896
:10103000C00602D52046FFF748F96E4609E016F8CB
:10104000010B3E280FD0D4E901219047206A401CB3
:101050002062B8F10108F2D22046FFF74CF909B03E
:101060000320BDE8F08F206A2844206203E0D4E921
:101070000121302090476D1EEBD3F8E7BE3D000004
:1010800002FCFFFF10B5436913B1AFF3008001E02C
:10109000FFF754F9012010BD127800F124010A7005
:1010A00000224A700122EDE711684FF0FF32E9E7B4
:1010B00010B5436913B1AFF3008001E0FFF7D6F933
:1010C000012010BD128800F1240182840022C28414
:1010D0000122EDE711684FF0FF32E9E72DE9F04119
:1010E00016460C46054600F043F8036893F80101E4
:1010F000012807D0FF2C12D8185D80B101202C7078
:10110000BDE8F081D3F807013246214603F2071308
:10111000C7182846BC46BDE8F041002360474FF0A1
:10112000FF30EDE7754600F0EBF8AE460500694686
:10113000534620F00700854618B020B5FFF788F821
:10114000BDE820404FF000064FF000074FF00008C8
:101150004FF0000BAC46ACE8C009ACE8C009ACE805
:10116000C009ACE8C00921F007018D4670470000B6
:1011700010B500F005F8001D10BD00BFC53300001C
:1011800000487047480000202DE9F0411F46044602
:1011900003260168072A01F4006004DB08B116A5E4
:1011A00005E016A503E008B115A500E015A521F09E
:1011B00010002060A069C01EA0610FB1401EA06198
:1011C0002046FFF782F84FB1D4E901213846904715
:1011D000206A401C2062C01C206206E0206AFAE7F8
:1011E000D4E9012115F8010B9047761EF8D220466C
:1011F000FFF781F8BDE8F0814E414E006E616E0050
:10120000494E4600696E66002DE9F0478146164654
:101210008AB0354878440DC88DE80D0032487844CE
:10122000801C03AC0DC884E80D0041F69B300844D7
:10123000372190FBF1F290FBF1F5A5F1800501FB60
:1012400012041B3C02D56442012000E00020DFF8BC
:1012500098A080460027FA44AAF1BE0A0EE0E007F3
:101260000AD03246684607EB470101230AEB8101A9
:1012700002F0FDFF8DE8070064107F1C002CEED10A
:10128000194F7F44AE3F19E0E80715D007EB041073
:101290000DF1180A90E80E008AE80E00C068F042CE
:1012A00001D1981908903246012306A903A802F03B
:1012B000DEFF03AB83E807006D10641C002DE3D153
:1012C0004FF0010332466946B8F1000F03A802D07F
:1012D00002F0B8FF01E002F0CAFFC9E90001C9F855
:1012E00008200AB0BDE8F087C83A000010B50446EF
:1012F000AFF300802046BDE81040FEF794BF000029
:1013000000487047280000204FF0013C50F8042BA3
:1013100051F8043B9A4221D1A2EB0C03934313EA08
:10132000CC1317D150F8042B51F8043B9A4215D135
:10133000A2EB0C03934313EACC130BD150F8042B0C
:1013400051F8043B9A4209D1A2EB0C03934313EAF0
:10135000CC13DBD04FF00000704700BFD01A01BAA9
:10136000B1FA81F101F0180122FA01F0CB40DBB2B1
:10137000C0B2C01AC1F120012CFA01F3D11A914375
:1013800011EAC311E6D1704701491820ABBEFEE750
:10139000260002007047000082B001908DF8031013
:1013A0009DF8030030B1FFE70199886840F0010023
:1013B000886005E00199886820F001008860FFE7F7
:1013C00002B0704780B58AB004200121039100F07B
:1013D00097FE0220ADF82400002001908DF8270030
:1013E00003208DF8260040F60000C4F2010009A990
:1013F00000F034FA03994FF4007000F081FE019878
:10140000039A04908DF814008DF8150007904FF49E
:10141000602006908DF8202042F20040C4F20100C6
:1014200002900723114600F0D3F8029804A900F0B7
:1014300081F802980399FFF7AFFF0AB080BD000062
:1014400080B582B040F28A00C2F200000078014606
:10145000019120B1FFE7019801280FD044E042F24A
:101460000040C4F201000121009100F06FF90098E2
:1014700040F28A01C2F20001087036E042F20040F8
:10148000C4F20100022100F03BF860B3FFE742F232
:101490000040C4F2010000F02BF8014640F2880041
:1014A000C2F2000001800088B421414340F20110E3
:1014B000C0F21000A1FB0020091A00EB5100C10A84
:1014C00040F28B00C2F200000170017840F2181067
:1014D000C2F2000002F0CAFA40F28A01C2F2000130
:1014E00000200870FFE700E0FFE702B080BD0000C9
:1014F00081B000900098C06C80B201B070470000CD
:1015000082B001908DF8031000208DF80200019840
:1015100000689DF80310084204D0FFE701208DF811
:10152000020003E000208DF80200FFE79DF80200B2
:1015300002B0704784B003900291002001908DF8B2
:10154000030003984068019001984FF6FF61CFF6C1
:10155000F0710840019002990868097940EA012178
:1015600001980843019001980399486003988068A6
:10157000019001984FF2FD71CFF6F1710840019092
:101580000299C8688A681043497940EA4101019884
:10159000084301900198039988600398C06A0190FC
:1015A000019820F4700001900298007C411E9DF883
:1015B000030008438DF803009DF80310019840EAEA
:1015C0000150019001980399C86204B0704700006F
:1015D00084B003908DF80B108DF80A208DF8093037
:1015E0000020019000909DF80B000A2821DBFFE706
:1015F0000398C06801909DF80B0000EB4000A0F13B
:101600001E010720884000900099019888430190AE
:101610009DF809009DF80B1001EB41011E3988402F
:101620000090009901980843019001980399C860BF
:101630001DE00398006901909DF80B0000EB40014C
:1016400007208840009000990198884301909DF8F8
:1016500009009DF80B1001EB4101884000900099B2
:10166000019808430190019803990861FFE79DF8EC
:101670000A00062820DCFFE70398406B01909DF8E4
:101680000A0000EB8000411F1F2088400090009955
:101690000198884301909DF80B009DF80A1001EB1A
:1016A0008101053988400090009901980843019014
:1016B00001980399486347E09DF80A000C2821DC53
:1016C000FFE70398006B01909DF80A0000EB800093
:1016D000A0F123011F2088400090009901988843C1
:1016E00001909DF80B009DF80A1001EB8101233950
:1016F000884000900099019808430190019803994F
:10170000086320E00398C06A01909DF80A0000EB8E
:101710008000A0F141011F208840009000990198AD
:10172000884301909DF80B009DF80A1001EB8101A0
:101730004139884000900099019808430190019830
:101740000399C862FFE7FFE704B0704782B00190D9
:101750008DF803109DF8030030B1FFE70199886808
:1017600040F4A000886005E00199886820F4A0009A
:101770008860FFE702B0704780B5FFF761FE80BD6B
:1017800080B5FFF71FFE80BD81B08DF803009DF886
:101790000300010901EB810100F00F0000EB4100A3
:1017A000C0B201B07047000083B002900191ADF863
:1017B00002200299012008700299487002998870ED
:1017C000019802990861BDF802000299888203B06D
:1017D0007047000081B08DF803009DF803004CF6BF
:1017E000CD41CCF6CC41A0FB011202F07801D20829
:1017F00002EB8202A0EB420040EA4100C0B201B01D
:101800007047000080B582B0019001F069FF009040
:10181000FFE701F065FF0099401A0199884201D85D
:10182000FFE7F6E702B080BD80B582B010200090DF
:10183000012100F065FC00984FF40051ADF8041050
:101840008DF8070003208DF8060041F20000C4F275
:10185000010001A900F002F802B080BD88B0079035
:101860000691002005900490039002900190009052
:101870000698C07800F00F0005900698C078C00662
:10188000002806D5FFE7069881780598084305905B
:10189000FFE70698007800284BD0FFE7079800681C
:1018A000019000200390FFE7039807283DD8FFE749
:1018B0000399012088400290069800880299084008
:1018C00004900498029988422AD1FFE70398800087
:1018D000029002990F208840009000990198884357
:1018E00001900598029900FA01F1019808430190CE
:1018F0000698C078282806D1FFE703990120884080
:10190000079948610BE00698C078482806D1FFE7A0
:1019100003990120884007990861FFE7FFE7FFE787
:10192000FFE7039801300390BEE70198079908602C
:10193000FFE706980088B0F5807F50DBFFE7079847
:101940004068019000200390FFE70398072842D8E1
:10195000FFE7039800F108010120884002900698F3
:1019600000880299084004900498029988422DD179
:10197000FFE703988000029002990F2088400090B2
:1019800000990198884301900598029900FA01F1A5
:101990000198084301900698C078282808D1FFE7ED
:1019A000039800F108010120884007994861FFE78A
:1019B0000698C078482808D1FFE7039800F108018D
:1019C0000120884007990861FFE7FFE7FFE70398D8
:1019D00001300390B9E7019807994860FFE708B024
:1019E0007047000082B00190ADF8021000208DF821
:1019F000010001988068BDF80210084204D0FFE79A
:101A000001208DF8010003E000208DF80100FFE7C0
:101A10009DF8010002B0704782B00190ADF802104D
:101A2000BDF802000199486102B0704782B0019090
:101A3000ADF80210BDF802000199086102B07047CC
:101A400082B001908DF803109DF8030030B1FFE7DC
:101A50000199088840F48060088005E001990888B1
:101A600020F480600880FFE702B0704786B00590E0
:101A7000049100200390029001908DF803000598D6
:101A8000808A02900598008B0190019800040190D3
:101A900002980199084320F07F400390039804992D
:101AA0000840884204D1FFE701208DF8030003E0DD
:101AB00000208DF80300FFE79DF8030006B0704793
:101AC00082B001908DF803109DF8030030B1FFE75C
:101AD0000199088840F00100088005E00199088814
:101AE00020F001000880FFE702B0704780B588B0A1
:101AF00008200121029100F003FBC020ADF81C007A
:101B00001C208DF81F0003208DF81E0040F60040B9
:101B1000C4F2010007A9FFF7A1FE02994FF40010DB
:101B200000F0D2FA0020ADF8100048F2A061C0F237
:101B300001010391ADF816004BF6FF71ADF81210DC
:101B4000ADF814004FF48040ADF8180045F20040A5
:101B5000C4F20000019003A900F064F80198029912
:101B6000FFF7AEFF08B080BD82B001908DF8031082
:101B70009DF8030030B1FFE70199088840F48070B8
:101B8000088005E00199088820F480700880FFE74C
:101B900002B0704782B001908DF803109DF80300E9
:101BA00030B1FFE70199088840F40070088005E033
:101BB0000199088820F400700880FFE702B07047A0
:101BC00085B00490039100208DF80B0001900090E7
:101BD000049800900398000F0190039820F07F4034
:101BE0000390019820B1FFE700981430009006E0C0
:101BF000BDF80E000390009818300090FFE70098A1
:101C000000680399084204D0FFE701208DF80B001B
:101C100003E000208DF80B00FFE79DF80B0005B0F6
:101C20007047000080B58CB00B900A9100200190A5
:101C3000ADF82600ADF824000420ADF8220041F2F2
:101C40000020C0F27A0007900B988088ADF826003B
:101C5000BDF8260020F03F00ADF8260002A800F0F5
:101C60006BFA01980499079107994DF68362C4F2C3
:101C70001B32A1FB0221890CADF82410BDF82420F1
:101C8000BDF826101143ADF82610BDF826100B9AAA
:101C900091800B9A118821F001011180ADF8260086
:101CA0000A98006848F2A061C0F2010188421ED87B
:101CB000FFE707980A9909684900B0FBF1F0ADF811
:101CC0002200BDF82200032804DCFFE70420ADF861
:101CD0002200FFE7BDF82210BDF826000843ADF84A
:101CE0002600BDF8240001300B99088446E00A98CC
:101CF000C0884BF6FF7188420AD1FFE707980A991E
:101D0000096801EB4101B0FBF1F0ADF822000FE0F2
:101D100007980A99096819225143B0FBF1F0ADF810
:101D20002200BDF8220040F48040ADF82200FFE719
:101D3000BDF82200000538B9FFE7BDF8220040F0E9
:101D40000100ADF82200FFE7BDF82200BDF8261023
:101D5000084340F40040ADF82600BDF824004FF4DD
:101D60009671484344F6D351C1F26201A0FB0101D0
:101D7000012000EB91100B990884FFE7BDF82600C5
:101D80000B9988830B99088840F0010008800B9814
:101D90000088ADF82600BDF826004FF6F531084062
:101DA000ADF826000A99888849890143BDF82600C4
:101DB0000843ADF82600BDF826000B9908800A9963
:101DC0008889098908430B9908810CB080BD0000FF
:101DD00080B582B08DF807008DF80610009200F0F3
:101DE000D1F89DF80700002100F078F89DF8060072
:101DF00000F0F4F800F0E8F800F0C4F89DF80700EF
:101E0000012100F06BF800F0A1F80099087000F0D3
:101E1000DBF802B080BD000081B000900098008A1D
:101E2000C0B201B07047000082B001908DF803107D
:101E30008DF802209DF8020038B1FFE79DF80300FD
:101E400040F001008DF8030006E09DF8030000F06B
:101E5000FE008DF80300FFE79DF80300019908825A
:101E600002B0704782B001908DF803109DF8030016
:101E70000199088202B0704780B582B08DF80700E2
:101E80008DF8061000F07EF89DF80700002100F0A4
:101E900025F89DF8060000F0A1F800F095F802B0D2
:101EA00080BD000080B582B08DF807008DF8061067
:101EB0008DF8052000F066F89DF80700002100F07D
:101EC0000DF89DF8060000F089F89DF8050000F077
:101ED00085F800F079F802B080BD000080B582B0CE
:101EE0008DF807008DF806109DF807109DF8062064
:101EF00045F20040C4F20000FFF796FF9DF806008F
:101F000070B9FFE7FFE745F20040C4F2000082210C
:101F1000C0F20701FFF7AAFD08B9FFE7F3E713E0F6
:101F20009DF8060001280ED1FFE7FFE745F20040CB
:101F3000C4F200000221C0F20301FFF797FD08B9C7
:101F4000FFE7F3E7FFE7FFE702B080BD80B545F2AA
:101F50000040C4F200000021FFF772FDFFE745F2E8
:101F60000040C4F200004021C0F20301FFF77EFDF3
:101F700008B9FFE7F3E745F20040C4F20000FFF7BD
:101F80004BFF80BD80B545F20040C4F20000012146
:101F9000FFF7EAFDFFE745F20040C4F200004FF40E
:101FA0000031FFF70DFE08B1FFE7F4E7FFE745F268
:101FB0000040C4F200000121C0F20301FFF756FD0A
:101FC00008B9FFE7F3E780BD80B545F20040C4F2F1
:101FD00000000121FFF7DEFD80BD000080B582B06A
:101FE0008DF807009DF8071045F20040C4F200008C
:101FF000FFF738FFFFE745F20040C4F200008421FC
:10200000C0F20701FFF732FD08B9FFE7F3E702B0BE
:1020100080BD000082B001908DF803108DF8022081
:102020008DF801309DF90100012812D1FFE70199D7
:10203000087801300870019890F900009DF90310AC
:10204000884205DDFFE79DF8020001990870FFE76F
:1020500011E00199087801380870019890F90000A2
:102060009DF90210884205DAFFE79DF80300019907
:102070000870FFE7FFE702B07047000080B586B048
:1020800004200121009100F01FF80098ADF8140021
:1020900018208DF8170040F60000C4F2010005A9D1
:1020A000FFF7DCFB00986021ADF804100021ADF8CB
:1020B0000A10ADF80C10ADF806004FF0804001A9F1
:1020C00000F0D2FA06B080BD82B001908DF8031006
:1020D0009DF8030048B1FFE7019A41F21C01C4F2E8
:1020E000020108681043086008E0019A41F21C01EF
:1020F000C4F20201086890430860FFE702B070472D
:1021000082B001908DF803109DF8030048B1FFE7FD
:10211000019A41F21801C4F20201086810430860F4
:1021200008E0019A41F21801C4F2020108689043E4
:102130000860FFE702B0704786B005900020049069
:1021400003900290019041F20400C4F20200006882
:1021500000F00C0004900498009040B1FFE7009854
:1021600004280BD0FFE7009808280ED047E0059917
:1021700041F20020C0F27A00086047E0059941F280
:102180000020C0F27A00086040E041F20400C4F28E
:102190000200016801F470110391006800F48030BE
:1021A00002900399022000EB91400390029848B9F5
:1021B000FFE7039840F60011C0F23D01484305993E
:1021C00008601BE041F20400C4F2020000688003D2
:1021D000002809D5FFE7039840F60011C0F23D0141
:1021E00048430599086008E0039841F20021C0F2D5
:1021F0007A01484305990860FFE7FFE706E0059983
:1022000041F20020C0F27A000860FFE741F20400CA
:10221000C4F20200016801F0F00104910499090977
:102220000491049A44F60C51C0F600018A5C0192B4
:10223000059B1A68DDF804C022FA0CF25A600268A5
:1022400002F4E0620492049A120A0492049A8A5CEC
:102250000192059B5A68DDF804C022FA0CF29A60DC
:10226000026802F460520492049AD20A0492049A18
:10227000895C0191059A5168019BD940D160006841
:1022800000F4404004900498800B0490049944F6B4
:10229000F840C0F60000405C01900599C868019ABA
:1022A000B0FBF2F0086106B07047000080B500F0A6
:1022B00001F880BD84B000200390029041F200013B
:1022C000C4F20201086840F480300860FFE741F280
:1022D0000000C4F20200006800F40030029003988D
:1022E00001300390FFE702990020019039B9FFE720
:1022F0000398B0F5A06018BF01200190FFE7019896
:10230000C0070028E3D1FFE741F20000C4F2020059
:1023100000688003002803D5FFE70120029002E057
:1023200000200290FFE70298012851D1FFE742F216
:102330000001C4F20201086840F01000086008685B
:1023400020F007000860086840F00200086041F2D1
:102350000401C4F20201009108680860086808607E
:10236000086840F480600860086820F47C10086009
:10237000086840F4E810086041F20001C4F202016C
:10238000086840F080700860FFE741F20000C4F286
:10239000020000688001002801D4FFE7F5E741F260
:1023A0000401C4F20201086820F003000860086814
:1023B00040F002000860FFE741F20400C4F20200AE
:1023C000006800F00C00082801D0FFE7F4E700E007
:1023D000FFE704B07047000080B582B0009000981D
:1023E0000138B0F1807F03D3FFE70120019019E0AD
:1023F000009801384EF21401CEF2000108604FF04F
:10240000FF300F2100F084FA4EF21801CEF20001E5
:10241000002008604EF21002CEF200020721116087
:102420000190FFE7019802B080BD000040F210115A
:10243000C2F20001086801300860704784B00020D3
:1024400003900290019041F20400C4F2020000687F
:1024500000F00C0003900398009040B1FFE7009853
:1024600004280ED0FFE70098082814D056E040F268
:102470000001C2F2000141F20020C0F27A000860BF
:1024800056E040F20001C2F2000141F20020C0F229
:102490007A0008604CE041F20400C4F202000168D6
:1024A00001F470110291006800F4803001900299EB
:1024B000022000EB91400290019860B9FFE702987A
:1024C00040F60011C0F23D01484340F20001C2F263
:1024D0000001086021E041F20400C4F2020000683B
:1024E000800300280CD5FFE7029840F60011C0F2E7
:1024F0003D01484340F20001C2F2000108600BE0D8
:10250000029841F20021C0F27A01484340F20001F2
:10251000C2F200010860FFE7FFE709E040F20001B6
:10252000C2F2000141F20020C0F27A000860FFE729
:1025300041F20400C4F202000068C0B2010944F68E
:10254000FC40C0F60000405C0390039A40F200019A
:10255000C2F200010868D040086004B07047000073
:1025600080B541F20002C4F20202106840F001009E
:10257000106041F20401C4F2020108680023CFF6A2
:10258000FF031840086010684FF6FF73CFF6F6633C
:1025900018401060106820F480201060086820F453
:1025A000FE00086041F20801C4F202014FF41F006E
:1025B0000860FFF77BFE4EF60851CEF200014FF0A7
:1025C0000060086080BD000080B5FFF737FF40F273
:1025D0000000C2F20000006844F6D351C1F262016B
:1025E000A0FB01108009FFF7F7FEFFF71FFF80BD7A
:1025F00080B500F019F8FFF741FD80BD82B0019071
:102600008DF803109DF8030030B1FFE701990888A9
:1026100040F00100088005E00199088820F00100E1
:102620000880FFE702B0704780B586B001210291B3
:102630000846FFF749FD0020ADF812004721ADF82C
:102640000C10ADF80E0044F61F60ADF810004FF00E
:102650008040019003A900F0B9F801980299FFF7B2
:10266000CDFF06B080BD000084B003900291002031
:10267000ADF80600ADF80400ADF802000399088C2F
:1026800020F0010008840398008CADF80400039842
:102690008088ADF802000398008BADF80600BDF805
:1026A000060020F07000ADF80600BDF8060020F02E
:1026B0000300ADF8060002980188BDF80600084343
:1026C000ADF80600BDF8040020F00200ADF80400EB
:1026D00002980189BDF804000843ADF8040002988F
:1026E0004188BDF804000843ADF80400039842F6A1
:1026F0000041C4F20101884220D0FFE7039843F271
:102700000041C4F20101884218D0FFE7039844F267
:102710000001C4F20101884210D0FFE7039844F29F
:102720000041C4F20101884208D0FFE7039844F653
:102730000001C4F20101884235D1FFE7BDF8040071
:1027400020F00800ADF8040002984189BDF80400AB
:102750000843ADF80400BDF8040020F00400ADF813
:10276000040002988188BDF804000843ADF8040015
:10277000BDF8020020F48070ADF80200BDF8020040
:1027800020F40070ADF8020002988189BDF80200C3
:102790000843ADF802000298C189BDF80200084361
:1027A000ADF80200FFE7BDF8020003998880BDF88C
:1027B0000600039908830298C08803998886BDF8AB
:1027C00004000399088404B07047000083B00290AD
:1027D00001910020ADF8020002980088ADF80200D7
:1027E000029842F60041C4F20101884225D0FFE779
:1027F000029843F20041C4F2010188421DD0FFE774
:102800000298B0F1804F18D0FFE7029840F20041E3
:10281000C4F20001884210D0FFE7029840F60001A0
:10282000C4F20001884208D0FFE7029840F6004158
:10283000C4F2000188420ED1FFE7BDF8020020F08B
:102840007000ADF8020001984188BDF8020008430D
:10285000ADF80200FFE7029841F20001C4F2000166
:10286000884216D0FFE7029841F20041C4F200010D
:1028700088420ED0FFE7BDF8020020F44070ADF8AA
:1028800002000198C188BDF802000843ADF80200BB
:10289000FFE7BDF80200029908800198808802993C
:1028A00088850198008802990885029842F60041BF
:1028B000C4F20101884220D0FFE7029843F20041B0
:1028C000C4F20101884218D0FFE7029844F20001E7
:1028D000C4F20101884210D0FFE7029844F200419F
:1028E000C4F20101884208D0FFE7029844F60001D3
:1028F000C4F20101884205D1FFE70198007A0299EC
:102900000886FFE702990120888203B07047000023
:1029100082B08DF8070000919DF9070000280AD4C5
:10292000FFE7009800019DF907104EF20042CEF239
:10293000000288540BE0009800019DF8071001F098
:102940000F014EF61452CEF200028854FFE702B097
:102950007047000080B58AB08DF8270040F2EC0087
:10296000C2F200000078013801460891072800F201
:10297000AE800899DFE801F0041424334E7B8B9B72
:102980009DF9273040F22810C2F200000790023073
:1029900017210022FFF73EFB079800F02DFE97E07D
:1029A0009DF9273040F22810C2F200000690013055
:1029B0003B210022FFF72EFB069800F01DFE87E06A
:1029C0009DF9273040F22810C2F2000005903B210B
:1029D0000022FFF71FFB059800F00EFE78E040F2A2
:1029E0002811C2F20001049191F9050091F9061035
:1029F00000F030FE014604988DF826109DF926104F
:102A00009DF9273004300122FFF704FB049800F001
:102A1000F3FD5DE09DF9273040F22810C2F200007E
:102A2000039005300C210122FFF7F4FA039991F984
:102A3000050091F9061000F00DFE014603988DF88F
:102A4000251090F904009DF92510884208DDFFE764
:102A50009DF8250040F22811C2F200010871FFE73D
:102A600040F22810C2F2000000F0C6FD30E09DF9EF
:102A7000273040F22810C2F2000002900630632195
:102A80000122FFF7C7FA029800F0B6FD20E09DF999
:102A9000273040F22810C2F20000019007301721C1
:102AA0000022FFF7B7FA019800F0A6FD10E09DF9AB
:102AB000273040F22810C2F20000009008303B217D
:102AC0000022FFF7A7FA009800F096FD00E0FFE76C
:102AD0000AB080BD80B588B000F002FE40F200115F
:102AE000C2F200010968401AC8285BD3FFE740F230
:102AF0000401C2F2000103910878B0FA80F04009A5
:102B0000087040F22810C2F2000090F9072090F9F6
:102B1000083044F66E51C0F6000104A8FDF7AAFB88
:102B20000398007801281BD1FFE740F2EC00C2F2C5
:102B30000000007801460291072804D0FFE70298C0
:102B4000082806D00BE020208DF811008DF8100029
:102B500005E020208DF814008DF81300FFE7FFE753
:102B600040F20C10C2F200000190002107220092F6
:102B700000F010FF019844F63F51C0F6000100F04C
:102B800035FE009A0198022100F004FF019804A983
:102B900000F02CFE00F0A4FD40F20011C2F2000192
:102BA0000860FFE708B080BD80B588B040F228100B
:102BB000C2F2000090F9072090F9083044F66E51F7
:102BC000C0F6000104A80390FDF754FB40F20C107E
:102BD000C2F20000029000F093FD0298002107224B
:102BE000019200F0D7FE029844F63F51C0F6000172
:102BF00000F0FCFD019A0298022100F0CBFE029841
:102C0000039900F0F3FD08B080BD000080B582B0EC
:102C10000190019840F2AC01C2F20001884254D107
:102C2000FFE740F2EC00C2F200000078014600919C
:102C3000082846D80099DFE801F0050C131A21286E
:102C40002F363D0040F2EC01C2F200010120087075
:102C500038E040F2EC01C2F200010220087031E0DD
:102C600040F2EC01C2F20001032008702AE040F2B9
:102C7000EC01C2F200010420087023E040F2EC01F4
:102C8000C2F20001052008701CE040F2EC01C2F223
:102C900000010620087015E040F2EC01C2F20001CC
:102CA000002008700EE040F2EC01C2F200010820A2
:102CB000087007E040F2EC01C2F200010020087049
:102CC00000E0FFE700F0BAFEFFE702B080BD0000C1
:102CD00080B582B00190019840F2AC01C2F20001CF
:102CE000884209D1FFE7FFF75FFF40F2EC01C2F233
:102CF000000107200870FFE700F0A0FE02B080BDD1
:102D000080B582B00190019840F2CC01C2F200017E
:102D1000884204D1FFE70120FFF71CFE0CE0019878
:102D200040F28C01C2F20001884204D1FFE700208A
:102D3000FFF710FEFFE7FFE700F080FE02B080BD66
:102D400080B582B00190019840F2CC01C2F200013E
:102D5000884204D1FFE70120FFF7FCFD0CE0019859
:102D600040F28C01C2F20001884204D1FFE700204A
:102D7000FFF7F0FDFFE7FFE700F060FE02B080BD67
:102D800080B540F28C00C2F2000000F02DF840F255
:102D9000CC00C2F2000000F027F840F2AC00C2F212
:102DA000000000F021F880BD80B582B040F28C00B8
:102DB000C2F2000040F60001C4F2010101911022AC
:102DC000FEF7F2FC019940F2AC00C2F200000822CA
:102DD000FEF7EAFC019940F2CC00C2F200000422A6
:102DE000FEF7E2FC02B080BD80B582B0019001998F
:102DF0000869898AFEF7F6FD8DF803009DF8030047
:102E00000199497888420CD0FFE79DF803000199A9
:102E1000487001990120C87000F062FC0199486077
:102E2000FFE70198C07801280FD1FFE700F058FCB8
:102E300001994968401A0F2807D3FFE7019948789C
:102E4000087001990020C870FFE701990878897817
:102E500088422CD0FFE70198007888B9FFE70199F4
:102E600001200877019908730198FFF769FF00F0C6
:102E700037FC0199886000F033FC0199886112E009
:102E800000F02EFC01998968401AB0F57A7F04D8C9
:102E9000FFE70198FFF7BAFEFFE7019900200873EA
:102EA00001990877FFE7019908788870FFE7019892
:102EB000007B012810D1FFE700F012FC019989681E
:102EC000401AB0F5FA6F07D3FFE70198FFF700FF4C
:102ED000019900200873FFE70198007F012811D1B4
:102EE000FFE700F0FDFB01998969401AB0F5C87F42
:102EF00008D3FFE70198FFF703FF00F0F1FB01990A
:102F00008861FFE702B080BD80B586B040F228112D
:102F1000C2F2000191F9070091F90210884240F0D5
:102F2000B980FFE740F22811C2F2000191F90800D0
:102F300091F90110884240F0AD80FFE741F20000B6
:102F4000C4F201004FF40051FEF766FD00F0C8FB2B
:102F500040F2F801C2F200010968401A40F214512F
:102F600088424FD3FFE741F20000C4F201004FF462
:102F70000051FEF75BFD00F0B3FB40F2F801C2F236
:102F80000001086040F2F400C2F20000007870B95D
:102F9000FFE740F21810C2F20000002100F066FDC9
:102FA00040F2F401C2F200010120087029E040F271
:102FB000F400C2F200000078012821D1FFE700F000
:102FC0008FFB40F2F001C2F200010968401AB0F52F
:102FD0007A7F15D3FFE740F21810C2F20000B42147
:102FE00000F044FD40F2F401C2F20001002008703C
:102FF00000F076FB40F2F001C2F200010860FFE74A
:10300000FFE7FFE70020059004904D20039044F671
:103010004140C5F24120029000F062FB40F20411F1
:10302000C2F200010968401AC82832D3FFE740F213
:103030002400C2F200000178B1FA81F1490901705F
:10304000007801280CD1FFE720208DF80C008DF8C6
:103050000B008DF80A008DF809008DF80800FFE7D5
:1030600040F20C10C2F2000001900321072200F090
:1030700091FC019844F67851C0F6000102AA00F0D4
:10308000B5FB00F02DFB40F20411C2F20001086014
:10309000FFE72FE040F22811C2F2000191F907008A
:1030A00091F9021088420BD1FFE740F22811C2F2D9
:1030B000000191F9080091F90110884219D0FFE749
:1030C00040F2F401C2F2000100200870FEF754FB48
:1030D00040F20C10C2F2000000900321072200F021
:1030E00059FC009844F61C51C0F6000100F07EFB2C
:1030F000FFE7FFE706B080BD81B08DF802009DF8C4
:1031000002008007A8B9FFE79DF802004BF65002C5
:10311000C0F21E5245F62941CCF28F2100FB01205E
:103120004FEAB00045F62841C0F28F21884215D8F9
:10313000FFE79DF802004BF65002C0F21E5245F622
:103140002941CCF28F2100FB01204FEA30104DF2D3
:103150000A71C0F2A301884204D8FFE701208DF86C
:10316000030003E000208DF80300FFE79DF9030052
:1031700001B0704780B582B040F2EC00C2F20000AE
:1031800000780146019150B1FFE701980138062807
:1031900008D3FFE70198073802281AD330E000F07F
:1031A0004DF82EE000F0A0FC00F09AFA40F2FC018D
:1031B000C2F200010968401A41F28831884207D3FF
:1031C000FFE740F2EC01C2F2000100200870FFE7C7
:1031D00017E0FFF77FFC00F083FA40F2FC01C2F237
:1031E00000010968401A41F28831884207D3FFE79D
:1031F00040F2EC01C2F2000100200870FFE700E09D
:10320000FFE702B080BD000080B5FEF70DFB40F285
:103210000C10C2F200004E2100F0AAFA00F028F8CB
:1032200040F21810C2F200004FF08041002200F07E
:103230000FFCFFF7DDF9FEF7A3FA80BD80B500F0C3
:1032400007FD00F04DFA40F20811C2F200010968D2
:10325000401AB0F5FA7F0AD1FFE700F0F9FC00F060
:103260003FFA40F20811C2F200010860FFE780BD9A
:1032700080B5FEF73BFC80BD80B582B0D02009212F
:103280000DF10702FEF7A4FD9DF80700FEF77CFA9A
:1032900002B080BD80B582B0D02008210DF10702B8
:1032A000FEF796FD9DF80700FEF76EFA02B080BDAE
:1032B00080B582B0D02004210DF10702FEF788FD11
:1032C0009DF80700FEF760FA02B080BD80B582B0BD
:1032D000D02003210DF10702FEF77AFD9DF80700CB
:1032E000FEF752FA02B080BD84B00390039890F9C3
:1032F0000400ADF80A00039890F90500ADF8080045
:10330000039890F9060000F5FA60ADF80600BDF8E4
:103310000800022807DCFFE7BDF80600411EADF8F3
:103320000610009004E0BDF8060002380090FFE7A8
:103330000099BDF80A000844ADF80A00BDF808007D
:103340001721484348F63961C3F6E301A0FB0101A8
:10335000BDF80A0000EB5100BDF8061000EB91002B
:1033600048F21F52C5F2EB12A1FB0221A0EB511053
:1033700000EBD110043042F29341C9F2492180FBA5
:1033800001210A18910801EBD271C1EBC101401A69
:103390008DF805009DF8050004B0704780B582B037
:1033A000D02002210DF10702FEF712FD9DF8070063
:1033B000FEF7EAF902B080BD80B582B0D0200121CD
:1033C0000DF10702FEF704FD9DF80700FEF7DCF99A
:1033D00002B080BD80B582B0D02005210DF107027A
:1033E000FEF7F6FC9DF80700FEF7CEF902B080BDAF
:1033F00080B582B0D02000210DF10702FEF7E8FC75
:103400009DF80700FEF7C0F902B080BD80B588B016
:103410000790D020019011210DF11B02FEF7D8FC7E
:1034200001989DF81B10079A117012210DF11A02D4
:10343000FEF7CEFC9DF81A00079948700799059190
:1034400008784978029100F07F0001F069F902469E
:10345000029803920491800901F062F9002200238E
:10346000C3F6D07301F074F9039A049B01F0B0F82D
:1034700001F07CF8059948600798406801F054FB1A
:1034800008B080BD80B582B00190D02011210DF12F
:103490000302FEF79DFC9DF8030001990870019856
:1034A000007802B080BD000080B582B00190FFF7C7
:1034B0009FFF01990870FFF77FFF01994870FFF7A0
:1034C0006DFF01998870FFF701FF0199C870FFF740
:1034D000EFFE01990871FFF77DFF0199487100F037
:1034E0000DF801998871FFF7C7FE0199C871FFF7C0
:1034F000D1FE0199087202B080BD000080B582B093
:10350000D02006210DF10702FEF762FC9DF80700AE
:10351000FEF73AF902B080BD80B582B00190019803
:10352000C079FEF757F90246D0200921FEF7BAFC10
:1035300002B080BD80B582B001900198007AFEF79C
:1035400049F90246D0200821FEF7ACFC02B080BD4C
:1035500080B582B0019001980079FEF73BF90246F0
:10356000D0200421FEF79EFC02B080BD80B582B061
:1035700001900198C078FEF72DF90246D020032172
:10358000FEF790FC02B080BD80B582B0019001983A
:103590008078FEF71FF90246D0200221FEF782FC58
:1035A00002B080BD80B582B0019001984078FEF7EE
:1035B00011F90246D0200121FEF774FC02B080BD53
:1035C00080B582B0019001984079FEF703F9024678
:1035D000D0200521FEF766FC02B080BD80B582B028
:1035E000019001980078FEF7F5F80246D0200021FE
:1035F000FEF758FC02B080BD80B582B00190019802
:10360000FFF7ECFF0198FFF7CDFF0198FFF7BCFF34
:103610000198FFF7ABFF0198FFF79AFF0198FFF7BA
:10362000CFFF019800F008F80198FFF775FF0198A7
:10363000FFF780FF02B080BD80B582B00190019895
:103640008079FEF7C7F80246D0200621FEF72AFC53
:1036500002B080BD80B582B08DF806008DF80510EF
:103660009DF906000146009101281ED0FFE7009851
:10367000022822D0FFE70098032816D0FFE7009821
:10368000042816D0FFE7009805280ED0FFE7009821
:1036900006280ED0FFE700980738022805D3FFE779
:1036A00000980938042804D315E01F208DF807007E
:1036B00011E01E208DF807000DE09DF80500FFF7D2
:1036C0001BFD20B1FFE71D208DF8070003E01C2043
:1036D0008DF80700FFE79DF9070002B080BD0000EC
:1036E00040F21010C2F200000068704780B582B04E
:1036F000ADF80600BDF80600FEF784F802B080BD04
:1037000080B582B0019001980121009100F0AAF8E3
:103710000098FFF7EBFF02B080BD000080B584B0D9
:1037200003908DF80B1001929DF80B0000F007003C
:103730008DF80B0003989DF80B20402141EAC2014F
:10374000C9B200F08FF800200090FFE7009807282A
:103750000BDCFFE703980199009A895C00F0CCF834
:10376000FFE7009801300090F0E704B080BD000052
:1037700080B584B003908DF80B10FEF7B7F99DF873
:103780000B00039908700399487840F004004870D2
:103790000398332100F066F80398322100F062F8B4
:1037A00005200190FFF7A2FF0398012100F05AF8CD
:1037B0000198FFF79BFF03980C2100F053F8019844
:1037C000FFF794FF0398022100F04CF80198FFF7EF
:1037D0008DFF0398802100F045F8039800F0F6F87B
:1037E00003990820887004B080BD000082B080B5C5
:1037F0008CB00F930E920B900A910EA803900A9929
:10380000039A05A8FCF74CFD8DF8130000208DF8F5
:103810000B00FFE79DF80B109DF81320002091424C
:10382000019008DAFFE79DF80B1000201029B8BFBF
:1038300001200190FFE70198C00770B1FFE70B98E6
:103840009DF80B2005A9895C00F056F8FFE79DF86C
:103850000B0001308DF80B00DCE70CB0BDE88040B8
:1038600002B0704780B584B003908DF80B109DF8BE
:103870000B0000F0F0008DF80A009DF80B0000012D
:103880008DF809009DF80A1003988078084340F0ED
:1038900004008DF805009DF80A0003998978084313
:1038A0008DF806009DF8091003988078084340F0D1
:1038B00004008DF807009DF80900039989780843F2
:1038C0008DF80800039800789DF80510FEF7D4FAEB
:1038D000039800789DF80610FEF7CEFA039800785A
:1038E0009DF80710FEF7C8FA039800789DF80810B5
:1038F000FEF7C2FA04B080BD80B584B003908DF8A5
:103900000B109DF80B0000F0F0008DF80A009DF8F8
:103910000B0000018DF809009DF80A1003988078CB
:10392000084340F005008DF805009DF80A10039843
:103930008078084340F001008DF806009DF80910DA
:1039400003988078084340F005008DF807009DF843
:10395000091003988078084340F001008DF80800B2
:10396000039800789DF80510FEF786FA0398007812
:103970009DF80610FEF780FA039800789DF807106E
:10398000FEF77AFA039800789DF80810FEF774FAAB
:1039900004B080BD80B584B003908DF80B108DF815
:1039A0000A2044F20000C5F21440019003989DF8EB
:1039B0000A109DF80B3001AAD25C114441F080013D
:1039C000C9B2FFF74FFF04B080BD000080B582B0E0
:1039D00001900199487800F0FE0048700198417804
:1039E00041F00801FFF73EFF02B080BD80B582B014
:1039F00000200190FEF7E8FDFFF7D6F9FFF704FC81
:103A0000FFE7FFF7B7FBFFF7BBF9FFF77DFAF8E732
:103A100084B0DDF810C003900291019200930398E6
:103A2000029BC01A049A0099521A5043019AD21A62
:103A300090FBF2F0084404B07047000080B5FFF737
:103A40004FFE40F2FC01C2F20001086080BD0000A0
:103A500083B002900191ADF80220019802990860AC
:103A6000BDF802000299888003B0704780B584B029
:103A700003908DF80B109DF80B006A464FF4166109
:103A800011600021B4224FF40873FFF7C1FFADF8B5
:103A9000080003988088014601910C2822D80199DA
:103AA000DFE801F0072020200D2020201320202017
:103AB0001900BDF8080003990968888612E0BDF86E
:103AC00008000399096808870CE0BDF8080003990D
:103AD0000968888706E0BDF8080003990968A1F81D
:103AE0004000FFE704B080BD80B592B0FFF7F8FD5D
:103AF00040F21411C2F200010968401AC828C0F04F
:103B0000A580FFE740F22501C2F200010891087884
:103B1000B0FA80F04009087040F22810C2F20000AC
:103B20000790FFF7C1FC0798FFF7DEFB01460798F7
:103B30008DF8271090F9022090F9013090F90000DB
:103B40006946086044F66951C0F600010EA8FCF70A
:103B500091FB07999DF8272040F20800C2F200006F
:103B600050F8222091F9043091F9050091F906C02E
:103B70006946C1F804C0086044F65551C0F600011A
:103B80000AA8FCF777FB08980078012839D1FFE7ED
:103B900040F2EC00C2F200000078013801460691C4
:103BA00005282DD80699DFE801F003090F151B2120
:103BB00020208DF839008DF8380021E020208DF884
:103BC0003C008DF83B001BE020208DF83F008DF875
:103BD0003E0015E020208DF82D008DF82C000FE020
:103BE00020208DF830008DF82F0009E020208DF87E
:103BF00035008DF834008DF833008DF83200FFE782
:103C0000FFE740F20C10C2F20000049000210222F3
:103C10000392FFF7BFFE049844F67851C0F6000106
:103C200005910EAAFFF7E2FD039904980322FFF71E
:103C3000B1FE049805990AAAFFF7D8FDFFF750FDD9
:103C400040F21411C2F200010860FFE712B080BD1B
:103C500080B58AB000210591099140F20750C0F269
:103C60000700089040F20C10C2F20000069008AA6B
:103C7000FFF754FD40F22810C2F200000390FFF756
:103C800013FC40F22010C2F200000490FFF7FAFB90
:103C90000498FFF7BBFB0398FFF726FB0599024644
:103CA00006988DF81F2002220292FFF773FE0399F7
:103CB000069891F9022091F9013091F90010EC4633
:103CC000CCF8001044F62251C0F60001FFF78EFD3B
:103CD000029906980322FFF75DFEDDF80CC00698F6
:103CE0009DF81F2040F20801C2F2000151F8222085
:103CF0009CF904309CF905109CF906E0EC46CCF8E0
:103D000004E0CCF8001044F65551C0F60001FFF76E
:103D10006DFD059906980E22FFF73CFE0499069862
:103D20000A7844F67351C0F60001FFF75FFD05996C
:103D300006981022FFF72EFE05990698FFF7DCFD86
:103D400006984321FFF7D8FD0AB080BD5FEA400C1A
:103D500008BF91F0000F4FEA8C234FEAC12243EADB
:103D600051514FEA1C5018BF00F5F0404FEA3000A7
:103D700018BF41F000415FEA6C5C00F02980BCF1A3
:103D8000FF3F08BF40F080407047130C06BF12048D
:103D90004FF0100C4FF0000C130E04BF12020CF188
:103DA000080C130F04BF12010CF1040C930F04BF95
:103DB00092000CF1020CD30F04BF52000CF1010C65
:103DC00011464FF00002A0F11F00A0EB0C0070475D
:103DD00011F0004F08BF704731F000413FF4D5AFFC
:103DE0000B0C06BF09044FF0100C4FF0000C0B0E2B
:103DF00004BF09020CF1080C0B0F04BF09010CF100
:103E0000040C8B0F04BF89000CF1020CCB0F04BF14
:103E100049000CF1010CCCF1200322FA03F341EA32
:103E2000030102FA0CF2A0EB0C0000F10100704754
:103E300023F07F4720F07F4C80EA030000F0004031
:103E4000ACEB070303F57C5303F1FF032DE9804935
:103E500009B44FEA144324EA03484FEA154B25EA14
:103E60000B4E0FF2042606EB13273E7803FB066782
:103E7000C7F5000707FB06F64FEAD64606F102062D
:103E80004FEA543707FB066CCCF1005C4FEA1C4745
:103E90002CEA074C0CFB06F507FB06F404EB154671
:103EA0004FEA961649085FEA320234BF00204FF00D
:103EB00000404FEAD13706FB07FC4FEA1C4C0CFBD5
:103EC0000BF7D21B03FB0CF761EB07010CFB0EF7A2
:103ED000B0EB074072EB17420CFB08F734BFA2EBC4
:103EE0000742B2EB074261EB17414FEA0C444FEA3D
:103EF000910706FB07FC4FEA1C4C0CFB0BF7B0EBE1
:103F0000C74072EB573203FB0CF734BFA2EBC7423A
:103F1000B2EBC74261EB57310CFB0EF7B0EBC700B9
:103F200072EB57720CFB08F734BFA2EBC702B2EB7F
:103F3000C70261EB57714FEA816141EA92114FEA82
:103F4000826242EA90124FEA806004EBCC04039F45
:103F50004FEAD13706FB07FC4FEA1C4C0CFB0BF772
:103F6000D21B03FB0CF761EB07010CFB0EF7B0EB68
:103F7000074072EB17420CFB08F734BFA2EB074275
:103F8000B2EB074261EB17414FEA8C5504EB9C24DE
:103F90004FEA910706FB07FC4FEA1C4C0CFB0BF7A2
:103FA000B0EBC74072EB573203FB0CF734BFA2EB08
:103FB000C742B2EBC74261EB57310CFB0EF7B0EBD7
:103FC000C70072EB57720CFB08F734BFA2EBC702B5
:103FD000B2EBC70261EB57714FEA816141EA92117E
:103FE0004FEA826242EA90124FEA806015EB4C255C
:103FF00044F100044FEAD13706FB07FC4FEA1C4CA2
:104000000CFB0BF7D21B03FB0CF761EB07010CFB5E
:104010000EF7B0EB074072EB17420CFB08F734BF0A
:10402000A2EB0742B2EB074261EB17414FEA813145
:1040300041EA92414FEA823242EA90424FEA8030AE
:104040004FEA0C7615EB1C1544F1000448EA0343D3
:104050004EEA0B484FF0000EB2EB080C71EB030771
:1040600024BF624639464EEB0E0E4FF0000B00188F
:10407000524149414BEB0B0BB2EB080C71EB0307C0
:104080007BF1000B24BF624639464EEB0E0E4FF01B
:10409000000B0018524149414BEB0B0BB2EB080CE3
:1040A00071EB03077BF1000B24BF624639464EEBF0
:1040B0000E0E51EA020718BF46F0010616EB0E7607
:1040C00055F1000254F1000103D5BDE88901BDE8B6
:1040D0000088BDE88901BDE80048B619524141EBAE
:1040E0000101A3F10103704780807F7E7D7C7B7A94
:1040F0007978777676757473727171706F6E6E6D94
:104100006C6C6B6A6A696868676666656464636339
:1041100062616160605F5F5E5E5D5D5C5C5B5B5ABF
:104120005A5959585857575656555555545453532C
:1041300052525251515050504F4F4F4E4E4D4D4D87
:104140004C4C4C4B4B4B4A4A4A49494948484847D2
:104150004747474646464545454444444443434310
:1041600043424242424141419C46002B30D47700B9
:104170002BD04FEA37071CB503B44FF010004FF0B7
:104180001001BAF1000F06D0BCF1000FDCBF40F007
:10419000080040F008014FF000000FBCBDE81040DF
:1041A0000BF1010BBBF1010F08BF5FEA170722BF3C
:1041B00012F1010211F101014FF0004143F100033E
:1041C00000F0004043EA00007047F9D35708D0E7F9
:1041D00046EA06464FEA164613F1400F1FDD13F17B
:1041E000200FDFBF16430A46002120335B42BED0BA
:1041F000C3F1200746EA06464FEA164602FA07F7D9
:1042000046EA070622FA03F2C3F1200701FA07F78C
:1042100042EA070221FA03F14FF00003A7E746EA5A
:10422000020646EA06464FEA164646EA0106BCBFC3
:1042300046EA0646360C4FF000034FF000024FF0FE
:10424000000194E72DE9804C70B49A46934691E8BA
:10425000380007C831EA400C48BF34EA430C03D5A4
:10426000FFF7E6FDFFF780FFF0BCBDE8008C2DE90D
:10427000804C70B49A46934691E8380007C810F015
:10428000804F08BF13F0804F03D100F005F8FFF70F
:104290006BFFF0BCBDE8008C20F07F4723F07F4C23
:1042A00080EA030000F0004007EB0C03A3F57C5309
:1042B000A3F1FE0392F0000F00F0B38095F0000F21
:1042C00000F077802DE901494FEA114021EA0048CA
:1042D0004FEA144624EA064700FB06FC08FB06F6F4
:1042E00007FB08F818EB06484CEB164C00FB07F7E9
:1042F00018EB07484CEB17404FEA124B22EA0B4EE3
:104300004FEA154625EA06470BFB06FC0EFB06F6B0
:1043100007FB0EFE1EEB064E4CEB164C0BFB07F795
:104320001EEB074E4CEB174B18EB0B0840F100004F
:1043300018EB0E0B58EB000840F100008F1A4FF0FD
:1043400000014FF000063CBFC943661B14BFB5EB2C
:10435000040C00213CBFC943F61B4FEA174427EA6F
:1043600004454FEA1C472CEA074C04FB076205FB97
:1043700007F70CFB05F616EB074642EB174204FB6A
:104380000CFC16EB0C4642EB1C421BEB060658EBF2
:10439000020241414EEA8E0E46EA9E0601D5BDE874
:1043A0000189B619524141EB0101A3F10103BDE8B6
:1043B00001894FEA144524EA05464FEA114721EAEC
:1043C000074C05FB07F406FB07F70CFB06F111EBA6
:1043D000074144EB174405FB0CFC11EB0C4144EB8B
:1043E0001C444FEA124722EA074C05FB07F206FB82
:1043F00007F70CFB06F616EB074642EB174205FBE8
:104400000CFC16EB0C4642EB1C456A1854F10001FB
:1044100048BF7047B619524141EB0101A3F10103B6
:10442000704795F0000F37D04FEA114221EA02465B
:104430004FEA144724EA074C02FB07F106FB07F793
:104440000CFB06F414EB074441EB174102FB0CFC98
:1044500014EB0C4441EB1C414FEA154725EA074C8D
:1044600002FB07F506FB07F70CFB06F616EB074603
:1044700045EB174502FB0CFC16EB0C4645EB1C42CA
:10448000121951F1000148BF7047B619524141EB72
:104490000101A3F1010370474FEA144524EA0546E0
:1044A0004FEA114721EA074C05FB07F106FB07F726
:1044B0000CFB06F212EB074241EB174105FB0CFC2B
:1044C00012EB0C4251EB1C414FF0000648BF704705
:1044D000921841EB0101A3F101037047490050EA32
:1044E000C12018BF04204A0D18BF40F0010040F25F
:1044F000FF72B2EB515F08BF40F00200012808BF15
:104500000520704730380A2801D20120704700206A
:104510007047000010B500290AD00878002807D09D
:1045200005487844FCF7F0FE002801D0002010BDBB
:104530000248784410BD00007A08000072080000AC
:1045400010B500290AD00878002807D0054878441B
:10455000FCF7DAFE002801D0002010BD02487844A4
:1045600010BD00006A0800006208000021F000424F
:1045700001F00043A2F16052B2F5801F28BFD2F1D2
:104580007F6C0BD95FEA001C43EAC20242EB507019
:1045900018BF704728BF20F001007047B2F5801F98
:1045A000BCBF184670474FEA410C1CF5001F02D2F1
:1045B000084600F01ABB70B500F074F900000089DD
:1045C000FFF7F6BF4FF00040A0F5800070470000F5
:1045D00010B591EA030F48BF83F0004300F1BE819C
:1045E000841A71EB030C05D2121943EB0C03001B68
:1045F00061EB0C014FEA1154A4EB135CDFF81CE1F2
:104600001EEA430F18BF9EEA445F00F0748021EA5F
:10461000045123EA0E0343F48013DCF1200E32D35D
:1046200022FA0CFE10EB0E0023FA0CFE41EB0E01F9
:10463000CCF1200E03FA0EFE10EB0E00CCF1200E92
:1046400051F10001B1F5801F32D201EB045112FA91
:104650000EF2BDE8104058BF7047401C38BF5FEAFB
:10466000420218BF7047002814BF20F0010041F13A
:1046700000014FEA410313F5001F38BF7047A1F155
:10468000C04100F05DB9012A43EB0302ACF1200CFC
:10469000DCF11F0E32BF4FF0000E23FA0CF310EBCB
:1046A000030041EB0451B4EB115FD0D0A1EB0451F6
:1046B00001F58011490801EB04515FEA30000ED387
:1046C00050F1000038BF12FA0EFE08D1BDE81040CC
:1046D000C9E7401C38BF5FEA4202CAD1C3E7BDE860
:1046E00010404FEA410313F5001F38BF7047A1F196
:1046F000C04100F025B99EEA445F08D011EA5E0F80
:10470000BDE8104004BF01F0004100207047BDE843
:10471000104070B500F0C6F864FBBE3E0000E0FF3C
:1047200010F0004248BF4042B0FA80F310FA03F1A3
:104730000AD0C3F11D0303F5806302EB03524FEA75
:10474000415002EBD12170474FF00000704700004C
:1047500070B5DFF848C11CEA111E1EBF1CEA131514
:104760009EEA0C0F95EA0C0F00F06F8081EA0304BB
:104770004EEAD47EAE4421EA4C1123EA4C1341F4B4
:10478000801143F48013AEF17F7EA1FB024CA0FBAD
:104790000365361955EB0C05A1FB034C4CF10003E6
:1047A000A0FB021C16EB0C06654153F10003094205
:1047B00018BF46F0010613F4007F0BD14FEA033116
:1047C0004FEA053041EA155140EA165034036FF0C4
:1047D00003020AE04FEAC3214FEAC52041EA5551DE
:1047E00040EA5650F4026FF0020202EB2E4201EB57
:1047F000025585EACE710AD05FEA440C18BF24F056
:10480000004450F1000041F1000120EAD47040F270
:10481000FE7C624500D270BDA84214BF4FF08044B8
:104820004FF04044002E08BF0024BEF1806FA8BFA7
:10483000A1F1C041BDE8704080F2828001F1C04129
:1048400001F000414FF0000070470CEA13159EEA9A
:104850000C0F18BF95EA0C0F06D081EA030E4FF03B
:1048600000000EF0004170BD00F01CF88900013E10
:1048700000F007B800F009B84FEA430C5FEA5C5C4F
:1048800008D081EA030100F05BB84FEA410C5FEA0F
:104890005C5CF6D102494FF0000070470000FF0752
:1048A0000000F87F0EF1020E2EF0030E5EF8046B8E
:1048B000364205D4012A43EB030515F5001F12D833
:1048C000012841EB010C1CF5001F0CD80ED14FEA5A
:1048D000D17C0CEB4C0C0CF1020C15F5001F08BF41
:1048E0004CEBD37C04E04FF0080C01E04FEAD37CA2
:1048F0000CEB4C0526FA05F606F00706B6F1040C9B
:1049000006D20EEB860CBDE870404CF0010C6047FF
:10491000DFE80CF0090B02024FF00041A1F5002185
:104920004FF0000070BD19461046012851EB0104FC
:1049300018BFD4F5001484BF002001F0004170BD01
:104940000808A0F500114FEA3101704710B591EA4F
:10495000030F48BF83F000433FF542AE841A71EB6A
:10496000030C07D28CF0004C121943EB0C03001B14
:1049700061EB0C014FEA1154A4EB135CDFF8A4E1E6
:104980001EEA430F18BF9EEA445F00F0B48021EA9C
:10499000045123EA6E035242C3EB6E0338BF5B1E21
:1049A000DCF1200E25D322FA0CFE10EB0E0043FAA8
:1049B0000CFE41EB0E01CCF1200E03FA0EFE10EBC3
:1049C0000E00CCF1200E51F1000129D401EB04516D
:1049D00012FA0EF2BDE8104058BF7047401C1CBFD1
:1049E000B2F1004F704700280CBF491C20F00100B5
:1049F000704712EB020E43EB030218BF4FF0010E9B
:104A00004EEA4202ACF1200CDCF11E0E56D943FAFC
:104A10000CFE10EB0E00CCF11E0E51F1FF31D5D57E
:104A20000EF1010E12FA0EFE404141EB010101EBC5
:104A3000445C5FEA5C5C10D901EB045110EBDE7062
:104A400038BFBEF1004FBDE8104018BF70470028C6
:104A50000CBF491C20F00100704734D24FEAD42C1F
:104A600024F4006411F500111BD0B1FA81F20B3A65
:104A7000A41AA41ED2F12003914030FA03F3194383
:104A8000904001EBCC7101EB0451002CBDE81040CB
:104A9000A8BF704701F1C04101F000414FF0000094
:104AA0007047B0FA80F310FA03F102D1BDE810406C
:104AB0007047E41A173C4805C90AE2E701EB0451C4
:104AC000BDE81040704749104FEA300001EB045137
:104AD000BDE8104002E04FF0000170474A0008BFF7
:104AE0000042F8D0B2F5001F28BF704701F0004126
:104AF0004FF0000070479EEA445F07D011EA5E0F56
:104B0000BDE8104004BF002100207047BDE8104000
:104B100070B5FFF7C7FE00BF40DFF63E104683F0DA
:104B2000004170470000E0FF41000B0ED3F19E02F0
:104B300008D950F400034FEA032323FA02F048BFD8
:104B40004042704710B500F00AF800BF4992248037
:104B5000002070476FF0004282EA200070470EF19B
:104B6000020E2EF0030E5EF8044B244204D44FEAEA
:104B70004102B2F17F4F11D84FEA4003B3F17F4FAA
:104B80000CD80ED14FEAD07C0CEB4C0C0CF1020C83
:104B9000B2F17F4F08BF4CEBD17C04E04FF0080C22
:104BA00001E04FEAD17C0CEB4C0324FA03F404F04F
:104BB0000704B4F1040C06D20EEB840CBDE81040DF
:104BC0004CF0010C6047DFE80CF0070802024FF0E0
:104BD0000040A0F5800010BD0846420018BFD2F189
:104BE000807288BF00F0004010BDFF2141EAD05024
:104BF000C0057047FBF792BFFCF7C6B80000000085
:104C00000000000030313233343536373839414214
:104C1000434445464030580030313233343536371E
:104C200038396162636465664030780004000008CA
:104C300000000000000000020001000010303132CE
:104C400033343536373839616263646566787000AD
:104C500030313233343536373839414243444546B2
:104C60005850000002400000000000A000000000BA
:104C700005400000000000C8000000000C400000DB
:104C80000000409C00000000194000000020BCBE55
:104C90000000000034400000BFC91B8E000000046B
:104CA000B5400000504BCFD06607E2CF01000000B6
:104CB0006C4100003E8251AADFEEA73401000000E3
:104CC000D9420000DCB5A0E23A301F97FFFFFFFF9A
:104CD000B4450000FD25A0C8E9A3C14FFFFFFFFFB9
:104CE000FF3F00000000008000000000FF3F0000C8
:104CF0000000008000000000020406080000000020
:104D0000000000000102030406070809000000007B
:104D100001020304010203040607080920202020E1
:104D20002000253032643A253032643A253032642E
:104D30002020005745440054554500465249004143
:104D40004C41524D004D4F4E0053554E005341546F
:104D50000054485500257320253032642F25303209
:104D6000642F32302530326400253032643A2530E9
:104D700032643A253032640025730000C84E0008C2
:104D8000000000202800000028010008F04E000864
:104D90002800002010070000440100081C0000004B
:104DA00043000000F8FFFFFF0C0000000E000000B1
:104DB0000F0000002E000000100100004300000062
:104DC000F8FFFFFF0040404040404040404041412C
:104DD00041414140404040404040404040404040D0
:104DE000404040404005020202020202020202026A
:104DF0000202020202202020202020202020200267
:104E000002020202020290909090909010101010F6
:104E10001010101010101010101010101010101092
:104E20000202020202028888888888880808080826
:104E300008080808080808080808080808080808F2
:104E4000020202024000000000000000000000001A
:104E50000000000000000000000000000000000052
:104E60000000000000000000000000000000000042
:104E70000000000000000000000000000000000032
:104E80000000000000000000000000000000000022
:104E90000000000000000000000000000000000012
:104EA0000000000000000000000000000000000002
:104EB00000000000000000000000000000000000F2
:104EC000000000000000000000A24A0401000000F1
:104ED000494D0008454D0008374D0008334D000886
:104EE000514D00083B4D00084D4D000801010000E8
:04000005080000ED02
:00000001FF
